:020000020000FC
:040000000C94270035
:10004C004BC00FE50DBF04E00EBF0027009362000C
:10005C0000936100009363000027AF93BF93CF938D
:10006C00DF93B1E0A9E2D0E0C2E40E949E00DF91F0
:10007C00CF91BF91AF91AF93BF93CF93DF93B1E08B
:10008C00A1E3D0E0CDE40E949E00DF91CF91BF911F
:10009C00AF91AF93BF93CF93DF93B1E0A8E3D0E0E0
:1000AC00CFE10E949E00DF91CF91BF91AF91AF93B2
:1000BC00BF93CF93DF93B1E0ADE3D0E0CCE20E94ED
:1000CC009E00DF91CF91BF91AF910F9304E00E94FE
:1000DC00BE000F910C947F00F894E0916300EE2326
:1000EC0041F4BF91AF910F93009162000E94F00018
:1000FC000F910F932F93209161002223E1F3009134
:10010C0062000395201710F00C948D0001E0009311
:10011C0062000F93009162000E94FD000F91002776
:10012C00009363000E9420012F910F917894099401
:10013C000F93EF93FF93009161000395009361007F
:10014C000E9412010FB70193B193A193D193C19364
:10015C00FF91EF910F9108950F93009162000E940F
:10016C00BE0001E0009363000F9178940C94BC00E6
:10017C000F931F932F933F93CF93DF93EF93FF93A3
:10018C00109161001123E9F0011779F01017C8F0F4
:10019C000E941201EF0103950E94120125E031919A
:1001AC0039932A95E1F7011799F70091620001172D
:1001BC0014F40C94E2000A951A95109361000093C4
:1001CC006200FF91EF91DF91CF913F912F911F91A1
:1001DC000F9108950F93EF93FF930E9412010FB7A5
:1001EC000193B193A193FF91EF910F9108951F93F8
:1001FC00AF93BF93CF93DF930E94120111910FBF66
:10020C00B191A191D191C191CCBFFD01DF91CF9161
:10021C00BF91AF911F9108950F921F921F9315E0FC
:10022C00019F1FE5010E1127111EF0011F911F9058
:10023C000F9008950F93002702BF01E003BF02E067
:10024C0009BF0F910895000000000E943D010000BD
:10025C0000000C9429010000000000000000F8943C
:10026C000C94B2000000000000000C943801000057
:08027C000000000000000895DD
:00000001FF
