:020000020000FC
:0C0000000C9427000C948E000C949500CA
:10004C00E1C004E00EBF0FE50DBF00270093620076
:10005C0000936100F894AF93BF93CF93DF93B2E01A
:10006C00AFE7D0E0CEED0E949E01DF91CF91BF9122
:10007C00AF917894F894AF93BF93CF93DF93B3E0A1
:10008C00ACE9D0E0CFE60E949E01DF91CF91BF9109
:10009C00AF917894F894AF93BF93CF93DF93B3E081
:1000AC00A4EBD0E0CDE40E949E01DF91CF91BF91F3
:1000BC00AF917894F894AF93BF93CF93DF93B3E061
:1000CC00AEECD0E0C9E00E949E01DF91CF91BF91D0
:1000DC00AF917894F894AF93BF93CF93DF93B3E041
:1000EC00ACEDD0E0CBE00E949E01DF91CF91BF91AF
:1000FC00AF917894F8940F9304E00E94C7010F918C
:10010C0078940F9300E0009363000F910C944B01D3
:10011C00F8940F9300E40E949C000F911895F894AA
:10012C000F9300E80E949C000F9118950F93AF93CA
:10013C00BF93EF93FF93102F009162000E94C700B2
:10014C000123002309F00995FF91EF91BF91AF9125
:10015C000F9108950F931F93AF93BF93EF93FF935A
:10016C000E94C7001127002321F006FD106407FD33
:10017C0010681BBFFF91EF91BF91AF911F910F9131
:10018C000895AF93BF930E9405023596DF010000DE
:10019C000D91FD91ED91BF91AF9108950F93EF9358
:1001AC00FF930E940502359600001193B193A19321
:1001BC00FF91EF910F910895EF93FF930F930E948E
:1001CC00000103950083E00F0027F01F0F910083BF
:1001DC00FF91EF910895EF93FF930E9400010F930D
:1001EC000A9500830F91E00F0027F01F0081FF910B
:1001FC00EF910895009162000E940502B9960000EB
:10020C0000810895F8940F93002703BF0F9100937A
:10021C0064000FB700936500009163000130A9F1F1
:10022C00EF93FF93009162000E94FC0101921192E6
:10023C00219231924192519261927192819291925A
:10024C00A192B192C192D192E192F192009164008B
:10025C000193119321933193419351936193719332
:10026C0081939193B193A193D193C193BF91B19386
:10027C00AF91A193009162000E940502BF91B193CE
:10028C00AF91A1930091650001932091610022230D
:10029C00E1F3009162000395201710F00C945701C4
:1002AC0001E0009362000F9300E0009363000F9154
:1002BC00009162000E94B0000E940502B191A191D0
:1002CC0001910FBFAF93BF93D191C191CCBF00915E
:1002DC0062000E94FC01019011902190319041909C
:1002EC0051906190719081909190A190B190C1903A
:1002FC00D190E190F1900191119121913191419125
:10030C0051916191719181919191B191A191D19101
:10031C00C191B0936500A0936400DF010000FD91D2
:10032C00ED91B0916500A09164000E943B0218957C
:10033C00F8940F931F93EF93FF9300916100039533
:10034C00009361000E940502B193A19300270193D1
:10035C00D193C19317E301931A951123E1F7FF9100
:10036C00EF911F910F910895F894009162000E94F3
:10037C00C7010F9301E0009363000F9178940C94E4
:10038C00C5010F931F932F933F93CF93DF93EF935D
:10039C00FF9310916100112301F1011779F01017EF
:1003AC00E0F00E940502EF0103950E94050221E492
:1003BC00319139932A95E1F7011799F71A95109312
:1003CC00610000916200002341F00A95101710F0B3
:1003DC000C94F101002700936200FF91EF91DF91E3
:1003EC00CF913F912F911F910F9108950E9405027B
:1003FC000F9309E0E00F0027F01F0F9108950F9263
:10040C001F920F93E1E40E9F01E6000E0027101ED1
:10041C00F0010F911F900F900895009364001093BA
:10042C0065001F91012F0E94E2000F910E94E200D3
:10043C000F910E94E2000F910E94E2000091640073
:10044C000F93009165000F930E94F100102F0E94F2
:10045C00F1001895009364000E94F1000F930E9424
:10046C00F1000F930091640018950F93002703BFC0
:10047C0002BF02E009BF02E003BF0F910895EF93A2
:10048C00FF930E94050238961083FF91EF91089517
:10049C00EF93FF93009162000E9405023896008151
:1004AC00FF91EF910895F8940E94E2007894F894EB
:1004BC001F930F9312E00DE60E9413020A95B9F7F1
:1004CC00F8940E94F1007894F8940C943002F8940B
:1004DC000E94E200789404E005BD002704BD04B539
:1004EC000333E8F3F8940E94F1007894F8940C9498
:1004FC0030020FE70ABBF8940E94E200789407E3FD
:10050C00F8941F930F9312E009E50E941302F894DC
:10051C000E94F10078940CE0F8941F930F9313E071
:10052C000FE30E94130207E0F8941F930F9313E05C
:10053C0005E20E941302F8941F930F9312E000EF50
:10054C000E94130202E0F8941F930F9313E008E14A
:10055C000E941302F7E0E2E210E0F8941F930F936D
:10056C0012E006EC0E941302F7E0E2E210E0F894CD
:10057C001F930F9312E006EC0E9413020C94BA0224
:10058C000591002351F0F8941F930F9312E006EDA0
:10059C000E94130213950C94C602F8940C9430022A
:1005AC00F8940E94E2007894012FF8941F930F9313
:1005BC0013E00CE40E941302F8940E94F10078946A
:1005CC00F8941F930F9313E00CE50E941302F89418
:1005DC000C943002112701E0F8941F930F9313E051
:1005EC000BE60E941302F8940E94E200789402E059
:1005FC00F8941F930F9312E009E50E941302F894EC
:10060C000E94F1007894F8940C943002112702E0C7
:10061C00F8941F930F9313E00BE60E941302F894C7
:10062C000C943002112704600770F8941F930F93F9
:10063C0013E00BE60E941302F8940C94300211277D
:10064C0008600F70F8941F930F9313E00BE60E9451
:10065C001302F8940C943002112700610C71F89479
:10066C001F930F9313E00BE60E941302F8940C9463
:10067C003002112700620C73F8941F930F9313E050
:10068C000BE60E941302F8940C943002202E312EAB
:10069C0011270068F8941F930F9313E00BE60E9448
:1006AC001302132D022DF8940C943002202E312EAF
:1006BC0010E4F8941F930F9313E00BE60E941302BF
:1006CC00132D022DF8940C943002F89402950F938C
:1006DC000F70012B0BBB0000DC9A00000000DC98B3
:1006EC000F9102950F70012B0BBB0000DC9A0000E0
:1006FC000000DC9800270BBBF8940C943002F894A3
:10070C000C943002F8940C943002494E5430000092
:10071C00494E543100004156522D4F5320302E3645
:10072C00000052756E207461736B00000000F89429
:10073C001F930F9313E006EE0E9413020000F8942F
:10074C000F931F9302E01FE60E9445021F910F9129
:10075C0078940000000000000C949C030000F894B6
:10076C000E944E0278940000F894AF93BF93CF93FD
:10077C00DF93B3E0ACEDD0E0CCE20E949E01DF91C0
:10078C00CF91BF91AF917894000000000C94BA0106
:10079C0000000000F8940E94E20078940000F894A5
:1007AC000E94F100789400000C94CE03000000002D
:1007BC00F8940E944E027894000000000C94DC0324
:1007CC00000000000000F8940C94300200000000BF
:0407DC00000008957C
:00000001FF
