:020000020000FC
:100000000C94020000E00EBF09E70DBF0E94BD0086
:1000100081E090E00E94370081E090E00E9437008C
:10002000EF93FF9381E090E00E9437009F918F91C2
:100030000E94840081E090E00E94370081E090E01F
:100040000E9437008AE090E00E943700CF010E94B2
:1000500084008DE491E00E9437008CE290E00E94E1
:10006000370082E490E00E9437000C9435004F92F4
:100070005F920F931F934F935F936F937F938F9331
:100080009F93CF93DF938150EFE5F4E0E81BF90BEA
:1000900000917A0010917B00CCE7D0E00E171F078B
:1000A00020F0EE27FF270C947700CCE7D0E00C1768
:1000B0001D07A9F049915991699179912F01480E35
:1000C000591E4416550698F3640F751F6E177F0767
:1000D00070F3481B590BFA01E1500C944E00E99360
:1000E000F99389939993C0937A00D0937B00DF9121
:1000F000CF919F918F917F916F915F914F911F91C0
:100100000F915F904F9008950F931F934F935F93BC
:100110006F937F93AF93FF93CF93DF9300917A0018
:1001200010917B00CCE7D0E00C171D07D8F0499167
:1001300059916991799184179507B1F7DE01A4501F
:100140000C171D0750F049915991699179914D9380
:100150005D936D937D930C94A000A450A0937A00BE
:10016000B0937B00DF91CF91BF91AF917F916F9161
:100170005F914F911F910F9108950F931F93EF93EC
:10018000FF93002714E0EAE7F0E00193E036F1077F
:10019000E0F30CE700937A0000E000937B00FF910E
:0801A000EF911F910F910895EA
:00000001FF
