:020000020000FC
:100000000C942A000C949C010C94A3010C94AA015A
:100010000C94B1010C94B8010C94BF010C94C6016E
:0E0020000C94CD010C94D4010C94DB01A0C310
:020030009DC36E
:020034009AC36D
:100038000C94E2010C94E9010C94F0010C949000EA
:100048000C94FE010C9447020C94050204E00EBFC8
:1000580005E50DBF002700935E0400935F040E942E
:1000680098030E94B304B5E0ABE0D0E0CFEF0E9464
:10007800DE02B5E0A9E1D0E0C9EE0E94DE02B5E0FB
:10008800AAE2D0E0CFEF0E94DE020F9300E00093D7
:100098005D040F910C948C022F933F934F935F93C1
:1000A800AF93BF930E943902113041F1123049F1E8
:1000B800143051F1183059F1103161F1103269F1F1
:1000C800113471F1123479F1143481F1183489F151
:1000D800103591F1103699F11138A1F11238A9F1C2
:1000E8001438B1F11838B9F11039C1F1103AC9F121
:1000F800113CD1F1123CD9F10C94BC002E7F0C9428
:10010800BC002D7F0C94BC002B7F0C94BC00277F77
:100118000C94BC002F7E0C94BC002F7D0C94BC006A
:100128003E7F0C94BC003D7F0C94BC003B7F0C943C
:10013800BC00377F0C94BC003F7E0C94BC003F7D14
:100148000C94BC004E7F0C94BC004D7F0C94BC00FA
:100158004B7F0C94BC00477F0C94BC004F7E0C94E2
:10016800BC004F7D0C94BC005E7F0C94BC005D7F8E
:100178000E948E01BF91AF915F914F913F912F9156
:1001880008952F933F934F935F93AF93BF930E942C
:100198003902BF91AF91113041F1123049F1143059
:1001A80051F1183059F1103161F1103269F11134FF
:1001B80071F1123479F1143481F1183489F1103560
:1001C80091F1103699F11138A1F11238A9F11438CA
:1001D800B1F11838B9F11039C1F1103AC9F1113C2F
:1001E800D1F1123CD9F10C943301212B0C94330139
:1001F800212B0C943301212B0C943301212B0C94CB
:100208003301212B0C943301212B0C943301312B16
:100218000C943301312B0C943301312B0C943301A2
:10022800312B0C943301312B0C943301312B0C946A
:100238003301412B0C943301412B0C943301412B96
:100248000C943301412B0C943301412B0C94330152
:10025800412B0C943301512B0C943301512B0E94E8
:100268008E015F914F913F912F9108950F930E94B6
:10027800390200270BBF2223C1F020FF0C944A014A
:100288000BB700640BBF21FF0C9450010BB700683B
:100298000BBF22FF0C94530123FF0C94530124FF3E
:1002A8000C94590125FF0C945901332391F030FF28
:1002B8000C94610131FF0C94640132FF0C946701C6
:1002C80033FF0C946A0134FF0C946D0145FF0C94C4
:1002D8006D014423A9F040FF0C94750141FF0C9473
:1002E800780142FF0C947B0143FF0C947E0144FF8C
:1002F8000C94810145FF0C9484010BB700620BBF7D
:10030800552331F050FF0C948C0151FF0C948C0153
:100318000F910895EF93FF930E94690336965193C6
:10032800419331932193B193A193FF91EF91089554
:10033800F89400935B0401E00E940C021895F8946D
:1003480000935B0402E00E940C021895F894009355
:100358005B0404E00E940C021895F89400935B0477
:1003680008E00E940C021895F89400935B0400E1E1
:100378000E940C021895F89400935B0400E20E9416
:100388000C021895F89400935B0401E40E940C0297
:100398001895F89400935B0402E40E940C021895E7
:1003A800F89400935B0404E40E940C021895F894F6
:1003B80000935B0408E40E940C021895F8940093DB
:1003C8005B0402E80E940C021895F89400935B0401
:1003D80004E80E940C021895F89400935B0408E85E
:1003E8000E940C021895F89400935B0400E90E949F
:1003F8000C021895F89400935B0400EA0E940C0222
:100408001895F89400935B0402EC0E940C0218956E
:1004180010935C04102F00915B040F9300915E040D
:100428000E947E0310915C04A0935B04B0935C046B
:100438002F933F934F935F930E9439025F914F919F
:100448003F912F910F91BB2341F4AA2331F4A0913E
:100458005B04B0915C040C943802AF93BF93A091F5
:100468005B04B0915C0418951895EF93FF930E9474
:10047800690336965191419131912191B191A191A0
:10048800FF91EF910895F8940F93002703BF0F9100
:1004980000935B040FB700935C04FF93EF93009104
:1004A8005E040E9469033E9600915C0401930192E8
:1004B800119221923192419251926192719281925C
:1004C8009192A192B192C192D192E192F19200914E
:1004D8005B04019311932193319341935193619359
:1004E800719381939193A193B193C193D193DF01B8
:1004F8000F910D930F910D9300915E040E94690373
:100508000F9101930F9101930EB701930DB70193CA
:1005180020915F042223E1F300915E0403952017E4
:1005280010F00C94980201E000935E040F9300E031
:1005380000935D040F91F8940E943A010E946903A8
:100548001191019131913EBF21912DBF0F931F93BE
:10055800119101910CBF389601910FBF0190119034
:10056800219031904190519061907190819091903B
:10057800A190B190C190D190E190F1900191119129
:100588002191319141915191619171918191919113
:10059800A191A0935B04B191B0935C04C191D191F6
:1005A800A191B191FD01A0915B04B0915C040E94FE
:1005B80074031895F8940F931F93EF93FF9300918A
:1005C8005F04039500935F040E946903B193A193AC
:1005D800DF0101E6A00F0027B01FB193A193D193CB
:1005E800C1931EE501931A951123E1F7FF91EF914D
:1005F8001F910F911895F8940F931F932F933F9382
:100608004F93CF93DF93EF93FF9344270C941803F2
:10061800F8940F93002703BF0F9141E004E00EBF49
:1006280005E50DBF00915E0410915F041123A1F14F
:10063800011719F1101780F110935B0410915904F8
:1006480001171CF41A951093590410915B040E9429
:100658006903EF0103950E94690332963191219154
:1006680024563040E25031932193E45024E63191EE
:1006780039932A95E1F7011751F71A9510935F04FA
:1006880000915E04002341F00A95101710F00C94B5
:100698004E03002700935E04442311F00C948C024F
:1006A800FF91EF91DF91CF914F913F912F911F9142
:1006B8000F910895F894EF93FF930E94690334967D
:1006C800B193A193FF91EF9108950F921F920F9309
:1006D800E4E60E9FF001E3500F911F900F900895EC
:1006E8000F93002703BF02BF02E009BF02E003BF68
:1006F8000F9108950F93EF93FF930E9469033C961F
:10070800119300915E040193FF91EF910F91089569
:10071800EF93FF9300915E040E9469033C96019158
:100728001191FF91EF9108950F9300E000BD05E24C
:1007380009B908E10AB90EE800BD0E94BF030F918C
:1007480008950E94B9035D9BFCCF0CB90E94BF03BA
:1007580008950E94B9035F9BFCCF0CB10E94BF03B0
:100768000895189518950CB118950F9300E000930B
:100778005A040F9108950F9301E000935A040F91C2
:1007880008950F930A950E94E4030A95E1F70E94E1
:100798000E040AEF0E94190406EF0E9419040F9133
:1007A8000000000008950E940E040F930AEF0E94B3
:1007B800190406EF0E9419040F9100000000089523
:1007C80000000E940E040F9307EF02500E941904C4
:1007D8000F91000000000F930AEF02500E941904C5
:1007E8000F910000000008950000000000000E9422
:1007F8000E040F9301EE02500E9419040F9100009D
:1008080000000F930FEF02500E9419040F9100008F
:10081800000008950F9308EF0E9419040E9419041C
:100828000F9100000000000008950F93035000008E
:100838000A95E9F70F9108950E9441040E94370430
:1008480008950E9446040E94370408950E943704C0
:10085800000000000000000008950E943704089579
:100868000E943E0408950E94460400000000000013
:10087800000008950E94460408950000000000004A
:100888000000089508950AB30F670ABB0EE10E949D
:10089800C5030CE00E94870407E00E947B040E94C5
:1008A800590402E00E94740408950F9301E00E9425
:1008B800960402E00E94C5030F9108950F9302E089
:1008C8000E94960402E00E94C5030F910895112327
:1008D80021F01F9310E4010F1F910E948C040895CA
:1008E8000F93046007700E9496040F9108950F9368
:1008F80008600F700E9496040F91089500610C71B2
:100908000E949604089500620C730E94960408954C
:100918000F9300680E9496040F910895DE9A0E9432
:10092800960408950F931F9302950E94A7040295B9
:100938000E94A7040BE10E9419040BB300780BBBBB
:100948001F910F9108950F930F701BB3107E012B09
:100958000BBBDC9A00000000DC980F91089500277B
:100968000093590400935804009357040E944704C5
:1009780008950F93EF93FF930591002321F00E94B0
:10098800CB040C94C004FF91EF910F9108950F933D
:100998001F930F93F8941091590400915E04011766
:1009A80029F0112319F078940C94CE04009359047B
:1009B800789400915804109157040E946B040F9189
:1009C8000E949204009158040395003110F0139589
:1009D8000027123020F0002711270E9459040093A5
:1009E8005804109357041F910F910895494E54309D
:1009F8000000494E543100004156522D4F532030CB
:100A08002E37300052756E207461736B0000000041
:100A180000E00093580400E000935704FAE0E0E097
:100A28000E94BD0400000C940B050F9301E00E9486
:100A3800A5030F910F9303E00E94A5030F910F9355
:100A480000E00E94A5030F910C940C030F9301E0A2
:100A58000E94A5030F910F930FE60A950E94E403E5
:100A68000E94C5030F910F9303E00E94A5030F9105
:100A78000F930FE60A950E94E4030E94C5030F91A5
:100A88000F9300E00E94A5030F910F930FE60A95BC
:100A98000E94E4030E94C5030F910F9301E00E9496
:100AA800A5030F910F930FE60A950E94E4030E9495
:100AB800C5030F910F9302E00E94A5030F910F93B6
:100AC8000FE60A950E94E4030E94C5030F910F9355
:100AD80000E00E94A5030F910F930FE60A950E946C
:100AE800E4030E94C5030F910F9300E00E94A50341
:100AF8000F910F930FE60A950E94E4030E94C50325
:100B08000F910F9302E00E94A5030F910F930FE638
:100B18000A950E94E4030E94C5030F910F9301E018
:100B28000E94A5030F910F930FE60A950E94E40314
:100B38000E94C5030F910F9302E00E94A5030F9135
:100B48000F930FE60A950E94E4030E94C5030F91D4
:100B58000F9301E00E94A5030F910F930FE60A95EA
:100B68000E94E4030E94C5030F910F9300E00E94C6
:100B7800A5030F910F930FE60A950E94E4030E94C4
:100B8800C5030F910C942A05F8940E945904F9E0C2
:100B9800E4EF0E94BD04829B0C94CF050895F8945D
:100BA8000E945904F9E0EAEF0E94BD04829B0C946C
:040BB800DA050895BD
:00000001FF
