:020000020000FC
:100000000C942A000C94B0010C94B7010C94BE011E
:100010000C94C5010C94CC010C94D3010C94DA011E
:0E0020000C94E1010C94E8010C94EF01BEC3B6
:02003000BBC350
:02003400B8C34F
:100038000C94F6010C94FD010C9404020C949000AD
:100048000C9412020C945B020C94190204E00EBF8B
:1000580003E50DBF002700935E0400935F0400933F
:100068005D040E94B6030E94D104B5E0A4E3D0E089
:10007800C0E20E94CE02B5E0A6E4D0E0CBE00E9448
:10008800CE02B5E0A4E5D0E0CAEF0E94CE02B5E00A
:10009800A1E7D0E0CBE70E94CE0203E0009356042C
:1000A80000E000935504FAE0E2E50E94DB0401E079
:1000B8000093560401E000935504F8940C948B02C5
:1000C8002F933F934F935F93AF93BF930E944D023B
:1000D800113041F1123049F1143051F1183059F111
:1000E800103161F1103269F1113471F1123479F182
:1000F800143481F1183489F1103591F1103699F1E1
:100108001138A1F11238A9F11438B1F11838B9F140
:100118001039C1F1103AC9F1113CD1F1123CD9F1B1
:100128000C94D0002E7F0C94D0002D7F0C94D0001E
:100138002B7F0C94D000277F0C94D0002F7E0C943A
:10014800D0002F7D0C94D0003E7F0C94D0003D7FD2
:100158000C94D0003B7F0C94D000377F0C94D000D7
:100168003F7E0C94D0003F7D0C94D0004E7F0C94C1
:10017800D0004D7F0C94D0004B7F0C94D000477F6B
:100188000C94D0004F7E0C94D0004F7D0C94D0007E
:100198005E7F0C94D0005D7F0E94A201BF91AF9159
:1001A8005F914F913F912F9108952F933F934F93D4
:1001B8005F93AF93BF930E944D02BF91AF911130EF
:1001C80041F1123049F1143051F1183059F1103120
:1001D80061F1103269F1113471F1123479F114348A
:1001E80081F1183489F1103591F1103699F11138EF
:1001F800A1F11238A9F11438B1F11838B9F1103950
:10020800C1F1103AC9F1113CD1F1123CD9F10C9469
:100218004701212B0C944701212B0C944701212BDA
:100228000C944701212B0C944701212B0C94470176
:10023800212B0C944701312B0C944701312B0C9442
:100248004701312B0C944701312B0C944701312B7A
:100258000C944701312B0C944701412B0C94470116
:10026800412B0C944701412B0C944701412B0C94D2
:100278004701412B0C944701412B0C944701512B0A
:100288000C944701512B0E94A2015F914F913F911D
:100298002F9108950F930E944D0200270BBF222330
:1002A800C1F020FF0C945E010BB700640BBF21FF67
:1002B8000C9464010BB700680BBF22FF0C94670114
:1002C80023FF0C94670124FF0C946D0125FF0C9407
:1002D8006D01332391F030FF0C94750131FF0C94BC
:1002E800780132FF0C947B0133FF0C947E0134FFBC
:1002F8000C94810145FF0C9481014423A9F040FF2F
:100308000C94890141FF0C948C0142FF0C948F01DD
:1003180043FF0C94920144FF0C94950145FF0C9403
:1003280098010BB700620BBF552331F050FF0C94B6
:10033800A00151FF0C94A0010F910895EF93FF9332
:100348000E947A0335965193419331932193B19347
:10035800A193FF91EF910895F8940093590401E057
:100368000E9420021895F8940093590402E00E9414
:1003780020021895F8940093590404E00E94200282
:100388001895F8940093590408E00E9420021895E3
:10039800F8940093590400E10E9420021895F894FB
:1003A8000093590400E20E9420021895F8940093E3
:1003B800590401E40E9420021895F8940093590406
:1003C80002E40E9420021895F8940093590404E46A
:1003D8000E9420021895F8940093590408E40E949A
:1003E80020021895F8940093590402E80E9420020C
:1003F8001895F8940093590404E80E94200218956F
:10040800F8940093590408E80E9420021895F8947B
:100418000093590400E90E9420021895F89400936B
:10042800590400EA0E9420021895F8940093590490
:1004380002EC0E942002189510935A04102F009184
:1004480059040F9300915E040E948F0310915A047F
:10045800A0935904B0935A042F933F934F935F93FB
:100468000E944D025F914F913F912F910F91BB23B5
:1004780041F4AA2331F4A0915904B0915A040C9480
:100488004C02AF93BF93A0915904B0915A041895A8
:100498001895EF93FF930E947A03359651914191F5
:1004A80031912191B191A191FF91EF910895F89423
:1004B8000F93002703BF0F910F921F922F923F9225
:1004C8004F925F926F927F928F929F92AF92BF925C
:1004D800CF92DF92EF92FF920F931F932F933F9348
:1004E8004F935F936F937F938F939F93AF93BF9334
:1004F800CF93DF93EF93FF930FB70F9300915E04B1
:100508000E947A0331960EB701930DB7019320919B
:100518005F042223F1F300915E040395201710F085
:100528000C94970201E000935E040E947A031191F3
:10053800103011F0113089F30E944E0101910EBF65
:1005480001910DBF019101910CBF0F910FBFFF9158
:10055800EF91DF91CF91BF91AF919F918F917F9153
:100568006F915F914F913F912F911F910F91FF9044
:10057800EF90DF90CF90BF90AF909F908F907F903B
:100588006F905F904F903F902F901F900F900E9418
:10059800850318950E945E030F931F932F933F9333
:1005A800EF93FF9300915F0403950E947A0311274C
:1005B80011939F011FE3210F1127311F31932193BD
:1005C800D193C193E45011E6E10F1127F11FB193C4
:1005D800A193E25022271CE522931A951123E1F7F3
:1005E80000935F04FF91EF913F912F911F910F911D
:1005F8000E94580318950E945E03F89444271091AE
:100608005E04011761F40C9454030E945E03F8948D
:1006180004E00EBF03E50DBF41E000915E04609069
:100628005E0410915F041123A1F1011741F1101725
:1006380080F11091570401171CF41A951093570470
:1006480010915F040E947A03EF01319603950E948E
:100658007A0331963191219124563040442321F474
:10066800061511F43EBF2DBFE25031932193E3509C
:1006780024E6319139932A95E1F7011719F71A956C
:1006880010935F0400915E04011708F00A95009327
:100698005E04442329F0442740935D040C948B02A4
:1006A800442740935D0418950F93002700935D0439
:1006B8000F9108950F93F89400915D04002319F0A9
:1006C80078940C945F0301E000935D040F911895F2
:1006D8000E945E03EF93FF930E947A033296B193D0
:1006E800A193FF91EF910E94580308950F921F92D2
:1006F8000F93E4E60E9FF001E3500F911F900F90C7
:1007080008950F93002703BF02BF02E009BF02E06C
:1007180003BF0F910895EF93FF93002331F40093E3
:100728005B0420935C040C94A1030F93012F0E9497
:100738007A030F913B9621930193FF91EF910895CE
:10074800EF93FF93002331F400915B0410915C0454
:100758000C94B3030E947A033B9601911191FF9187
:10076800EF9108950F9300E000BD05E209B908E193
:100778000AB90EE800BD0E94DD030F9108950E949A
:10078800D7035D9BFCCF0CB90E94DD0308950E943E
:10079800D7035F9BFCCF0CB10E94DD030895189529
:1007A80018950CB118950F9300E0009358040F9119
:1007B80008950F9301E0009358040F9108950F9343
:1007C8000A950E9402040A95E1F70E942C040AEF98
:1007D8000E94370406EF0E9437040F9100000000C2
:1007E80008950E942C040F930AEF0E94370406EF25
:1007F8000E9437040F9100000000089500000E9435
:100808002C040F9307EF02500E9437040F91000049
:1008180000000F930AEF02500E9437040F91000066
:10082800000008950000000000000E942C040F93AF
:1008380001EE02500E9437040F91000000000F9350
:100848000FEF02500E9437040F9100000000089536
:100858000F9308EF0E9437040E9437040F9100009D
:100868000000000008950F93035000000A95E9F76F
:100878000F9108950E945F040E94550408950E94F4
:1008880064040E94550408950E9455040000000065
:100898000000000008950E94550408950E945C0419
:1008A80008950E94640400000000000000000895FC
:1008B8000E946404089500000000000000000895EC
:1008C80008950AB30F670ABB0EE10E94E3030CE028
:1008D8000E94A50407E00E9499040E94770402E0A0
:1008E8000E94920408950F9301E00E94B40402E06C
:1008F8000E94E3030F9108950F9302E00E94B4044D
:1009080002E00E94E3030F910895112321F01F9341
:1009180010E4010F1F910E94AA0408950F93046028
:1009280007700E94B4040F9108950F9308600F7028
:100938000E94B4040F91089500610C710E94B404E0
:10094800089500620C730E94B40408950F93006820
:100958000E94B4040F910895DE9A0E94B404089589
:100968000F931F9302950E94C50402950E94C50427
:100978000BE10E9437040BB300780BBB1F910F915A
:1009880008950F930F701BB3107E012B0BBBDC9ADD
:1009980000000000DC980F91089500270093570489
:1009A80000935604009355040E94650408950F931C
:1009B800EF93FF930591002321F00E94E9040C9422
:1009C800DE04FF91EF910F9108950F931F930F93FA
:1009D80000915604109155040E9489040F910E94B9
:1009E800B004009156040395003110F013950027C8
:1009F800123020F0002711270E9477040093560434
:100A0800109355041F910F9108950F930027009399
:100A180057040F9108950F931F9300915E04F89463
:100A280010915704011729F0112319F078940C94A8
:100A380013050093570478941F910F910895494E18
:100A480054300000494E543100004156522D4F5346
:100A580020302E37310052756E207461736B0000A0
:100A680000915E0413E021E40E948F0300915E046C
:100A78000E94A4031123A1F302E00E94FF020C9438
:100A880009030895B5E0A7E7D0E0CAEE0E94CE02B8
:100A980000915E0411E021E00E948F030C9452053E
:100AA8000E940F0500915E040E94A4030E94E904BD
:100AB8000F9302E40A950E9402040E94E3030F9137
:100AC80002E40E94E9040F9302E40A950E940204DA
:100AD8000E94E3030F910C9456050E9447060E945A
:100AE80018060C9473050F9301E00E94C3030F913D
:100AF8000F930FE60A950E9402040E94E3030F91E8
:100B08000F9303E00E94C3030F910F930FE60A951A
:100B18000E9402040E94E3030F910F9300E00E94D9
:100B2800C3030F910F930FE60A950E9402040E94D7
:100B3800E3030F910F9301E00E94C3030F910F93FA
:100B48000FE60A950E9402040E94E3030F910F9397
:100B580002E00E94C3030F910F930FE60A950E94CB
:100B680002040E94E3030F910F9300E00E94C30365
:100B78000F910F930FE60A950E9402040E94E30367
:100B88000F910F9300E00E94C3030F910F930FE69C
:100B98000A950E9402040E94E3030F910F9302E05A
:100BA8000E94C3030F910F930FE60A950E94020457
:100BB8000E94E3030F910F9301E00E94C3030F917A
:100BC8000F930FE60A950E9402040E94E3030F9117
:100BD8000F9302E00E94C3030F910F930FE60A954B
:100BE8000E9402040E94E3030F910F9301E00E9408
:100BF800C3030F910F930FE60A950E9402040E9407
:100C0800E3030F910F9300E00E94C3030F910F932A
:100C18000FE60A950E9402040E94E3030F910C94C8
:100C280077050E941B0608950E9431060895959A3B
:100C380093980E9424069598939A0E9424060895F2
:100C4800969A0E942C0496980E944304949A0E94B3
:100C58002C0494980E942C0408959598939A0E94C5
:100C68003A06959A93980E943A060895949A0E9493
:100C78002C0494980E944304969A0E942C049698F7
:100C88000E942C0408958E9A8D9A8C9A8B9A969825
:080C9800959894989398089533
:00000001FF
