:020000020000FC
:100000000C942A000C949C020C94A3020C94780388
:100010000C94AC020C94B3020C9450030C94BC02EC
:0C0020000C94C3020C94CA020C94D10290
:100038000C94D8020C94DF020C94E6020C94900005
:100048000C94F4020C9410000C94FB0200E00EBF18
:1000580008E70DBF0E941701992788E10E947500E3
:1000680007EE0ABD03E00BBD0AE00EBD0DE005BDBD
:1000780000E109BF0E943C06B6E0A2EAD0E0C6E172
:100088000E94F603B6E0A0EBD0E0CBE00E94F603B6
:10009800B6E0ABEBD0E0C0E10E94F603B7E0A9E21E
:1000A800D0E0C6E10E94F603B7E0A2E3D0E0CDE9D4
:1000B8000E94F60303E00093560400E00093550401
:1000C800FDE0E8E30E94460601E00093560401E0E3
:1000D80000935504F894F0915404E09153040C945F
:1000E800B6030E9409014F925F920F931F934F939B
:1000F8005F936F937F938F939F93CF93DF938150F9
:10010800EFE5F4E0E81BF90B00917B0010917C000F
:10011800CDE7D0E00E171F0720F0EE27FF270C943D
:10012800B700CDE7D0E00C171D07A9F04991599108
:10013800699179912F01480E591E4416550698F376
:10014800640F751F6E177F0770F3481B590BFA0170
:10015800E1500C948E00E993F99389939993C09395
:100168007B00D0937C00DF91CF919F918F917F91FD
:100178006F915F914F911F910F915F904F900E94E7
:10018800030108950E9409010F931F934F935F93F2
:100198006F937F93AF93FF93CF93DF9300917B008F
:1001A80010917C00CDE7D0E00C171D07D8F04991DD
:1001B80059916991799184179507B1F7DE01A45097
:1001C8000C171D0750F049915991699179914D93F8
:1001D8005D936D937D930C94E400A450A0937B00F1
:1001E800B0937C00DF91CF91BF91AF917F916F91D8
:1001F8005F914F911F910F910E94030108950F93F2
:100208000027009379000F9108950F93F8940091B7
:100218007900002319F078940C940A0101E0009306
:1002280079000F9118950F931F93EF93FF93002771
:1002380014E0EBE7F0E00193E036F107E0F30DE7B7
:1002480000937B0000E000937C000E940301FF9173
:10025800EF911F910F910895FF922F933F934F9322
:100268005F93AF93BF93F02E0E944003012F007C51
:10027800002341F0003491F00038E1F0003C31F106
:100288000C94AA01113041F1123049F1143051F1A6
:10029800183059F1103161F1103269F1113471F1EE
:1002A800123479F1143481F1183489F1103591F14F
:1002B800103699F11138A1F11238A9F11438B1F1B9
:1002C8001838B9F11039C1F1103AC9F1113CD1F11E
:1002D800123CD9F10C94AA012E7F0C94AA012D7F0F
:1002E8000C94AA012B7F0C94AA01277F0C94AA01D5
:1002F8002F7E0C94AA012F7D0C94AA013E7F0C94AA
:10030800AA013D7F0C94AA013B7F0C94AA01377F78
:100318000C94AA013F7E0C94AA013F7D0C94AA017B
:100328004E7F0C94AA014D7F0C94AA014B7F0C942C
:10033800AA01477F0C94AA014F7E0C94AA014F7D15
:100348000C94AA015E7F0C94AA015D7F0F2D0E9478
:100358008E02BF91AF915F914F913F912F91FF9086
:100368000895FF922F933F934F935F93AF93BF935B
:10037800F02E0E944003BF91AF91012F007C003006
:1003880041F0003491F00038E1F0003C31F10C9478
:100398003102113041F1123049F1143051F1183065
:1003A80059F1103161F1103269F1113471F11234DF
:1003B80079F1143481F1183489F1103591F110363E
:1003C80099F11138A1F11238A9F11438B1F118389E
:1003D800B9F11039C1F1103AC9F1113CD1F1123C0F
:1003E800D9F10C943102212B0C943102212B0C945D
:1003F8003102212B0C943102212B0C943102212B38
:100408000C943102212B0C943102312B0C943102C3
:10041800312B0C943102312B0C943102312B0C947A
:100428003102312B0C943102312B0C943102412BC7
:100438000C943102412B0C943102412B0C94310263
:10044800412B0C943102412B0C943102412B0C941A
:100458003102512B0C943102512B0F2D0E948E0228
:100468005F914F913F912F91FF9008950F930E94B4
:10047800400300270BBF2223C1F020FF0C944A023F
:100488000BB700640BBF21FF0C9450020BB7006838
:100498000BBF22FF0C94530223FF0C94530224FF3A
:1004A8000C94590225FF0C945902332391F030FF24
:1004B8000C94610231FF0C94640232FF0C946702C1
:1004C80033FF0C946A0234FF0C946D0245FF0C94C0
:1004D8006D024423A9F040FF0C94750241FF0C946F
:1004E800780242FF0C947B0243FF0C947E0244FF87
:1004F8000C94810245FF0C9484020BB700620BBF79
:10050800552331F050FF0C948C0251FF0C948C024F
:100518000F910895EF93FF930E94F104359651933C
:10052800419331932193B193A193FF91EF91089552
:10053800F8940093590401E00E940B031895F8946D
:100548000093590402E00E940B031895F89418953B
:10055800F8940093590408E00E940B031895F89446
:100568000093590400E10E940B031895F89418951C
:10057800F8940093590401E40E940B031895F89429
:100588000093590402E40E940B031895F894009311
:10059800590404E40E940B031895F8940093590435
:1005A80008E40E940B031895F8940093590402E894
:1005B8000E940B031895F8940093590404E80E94CC
:1005C8000B031895F8940093590408E80E940B034C
:1005D8001895F8940093590400E90E940B031895A4
:1005E800F8940093590400EA0E940B031895F894B4
:1005F8000093590402EC0E940B031895EF93EF93B4
:100608000E94DB043D960081FF91EF910895EF93DE
:10061800F0935A041F93102F00915E040E94F10476
:100628003D9610831F9100915904F0915A04EF915F
:10063800A0935904B0935A040F932F933F934F9369
:100648005F9300915E040E9440035F914F913F9138
:100658002F910F91BB2341F4AA2331F4A09159049F
:10066800B0915A040C943F03AF93BF93A0915904DF
:10067800B0915A04189518950F93EF93FF930E9421
:10068800F10435965191419131912191B191A19106
:10069800FF91EF910F9108950F931F938F939F935D
:1006A80080914F0490915004019603E0883E900792
:1006B80091F48827992700914E0403950C3349F447
:1006C800002710914C041395183109F41127109341
:1006D8004C0400934E0480934F04909350049F91D0
:1006E8008F911F910F9118950F920FB60F921F922D
:1006F8002F923F924F925F926F927F928F929F922A
:10070800AF92BF92CF92DF92EF92FF920F931F9317
:100718002F933F934F935F936F937F938F939F9301
:10072800AF93BF93CF93DF93EF93FF93F09152046E
:10073800E091510431960EB701930DB70193E35040
:100748001127B0915404A0915304A117B107E9F3FC
:100758003F96C191D081FE01E117F10711F00C9489
:10076800B603FD01F0935204E09351041191103047
:1007780029F0E150113061F30C94A90301910EBFE7
:1007880001910DBF0191119103BD002704BD399658
:10079800008100935E040E943A0200E909BFFF91BC
:1007A800EF91DF91CF91BF91AF919F918F917F9101
:1007B8006F915F914F913F912F911F910F91FF90F2
:1007C800EF90DF90CF90BF90AF909F908F907F90E9
:1007D8006F905F904F903F902F901F900F900FBE9B
:1007E8000F9018950E94CD042F923F920F931F935C
:1007F8002F938F939F93AF93BF93CF93DF93EF93F1
:10080800FF93002784E690E00E947500E017F01738
:1008180011F40C945C040193CF01CF9691938193CA
:10082800C193D193E55014E6E10FF01FA293B29360
:10083800029310E812931BE502931A951123E1F72E
:10084800E55021E0B0915404A0915304A017B007DB
:1008580049F4F0935404E09353043E9620830C9497
:100868005C040027A017B00781F01E961D91211780
:1008780029F02D903C90D1010C9436042395B09129
:100888005404A09153040C9436042224B0915404C7
:10089800A09153041F960D911C910215120519F091
:1008A800D8010C944E04A150ED93FD933E962083FD
:1008B800FF91EF91DF91CF91BF91AF919F918F9170
:1008C8002F911F910F913F902F900E94C704089578
:1008D8000E94CD04B0915404A09153041127A1178C
:1008E800B107F9F1CC27DD2733271E961D91011793
:1008F80019F0FD010C948104ED012D903C90D1017B
:10090800A317B30791F7C317D30779F3CF50EF5065
:10091800CE01C317D30729F12F9629903880C051EB
:10092800B0915404A0915304CA17DB0729F03F96ED
:10093800219230820C94A4043092540420925304DF
:100948000E94C6001091520400915104801791072B
:1009580041F400E00EBF08E70DBF0E94C7040C94E5
:10096800A4030E94C70418950E94CD04EF93EF9347
:10097800FF930E94F1043296B193A193FF91EF91F6
:100988000E94C70418950F93002700935D040F91E8
:1009980008950F93F89400915D04002319F078945A
:1009A8000C94CE0401E000935D040F9118950F9309
:1009B8000E94E2040E94F1040F910895EF93FF93BF
:1009C8000027F0915204E0915104E017F00711F06C
:1009D8003E960081FF91EF9108951F93CF93DF9387
:1009E800F0915404E09153041127E117F10759F0ED
:1009F8003E961081EE50011731F0EF012F96E991E4
:100A0800F8810C94F804DF91CF911F9108950F930A
:100A1800002703BF02BF02E009BF02E003BF0F9136
:100A280008951F93EF93FF93112331F400935B0410
:100A380020935C040C9430050E94CD040F93012F81
:100A48000E94F1040F911127E117F10719F03B9665
:100A5800219301930E94C704FF91EF911F9108957C
:100A6800EF93FF93002331F400915B0410915C0431
:100A78000C944B050E94CD040E94F1040027E01756
:100A8800F00719F03B96119101910E94C704FF915C
:100A9800EF9108950F930A950E946D050A95E1F765
:100AA8000E9497050AEF0E94A20506EF0E94A20580
:100AB8000F910000000008950E9497050F930AEF18
:100AC8000E94A20506EF0E94A2050F9100000000F7
:100AD800089500000E9497050F9307EF02500E94A7
:100AE800A2050F91000000000F930AEF02500E9428
:100AF800A2050F910000000008950000000000000A
:100B08000E9497050F9301EE02500E94A2050F91D3
:100B1800000000000F930FEF02500E94A2050F91F2
:100B28000000000008950F9308EF0E94A2050E949C
:100B3800A2050F9100000000000008950F930350D4
:100B480000000A95E9F70F9108950E94CA050E94CE
:100B5800C00508950E94CF050E94C00508950E940F
:100B6800C005000000000000000008950E94C005B4
:100B780008950E94C70508950E94CF05000000004F
:100B88000000000008950E94CF05089500000000AD
:100B980000000000089508950AB30F670ABB0EE12C
:100BA8000E944E050CE00E94100607E00E94040611
:100BB8000E94E20502E00E94FD0508950F9301E0FE
:100BC8000E941F0602E00E944E050F9108950F93A0
:100BD80002E00E941F0602E00E944E050F91089550
:100BE800112321F01F9310E4010F1F910E94150695
:100BF80008950F93046007700E941F060F910895CF
:100C08000F9308600F700E941F060F9108950061EE
:100C18000C710E941F06089500620C730E941F0643
:100C280008950F9300680E941F060F910895DE9A99
:100C38000E941F0608950F931F9302950E94300685
:100C480002950E9430060BE10E94A2050BB30078C2
:100C58000BBB1F910F9108950F930F701BB3107E5C
:100C6800012B0BBBDC9A00000000DC980F91089563
:100C780000270093570400935604009355040E94DC
:100C8800D00508950F93EF93FF930591002321F06A
:100C98000E9454060C944906FF91EF910F91089514
:100CA8000F931F930F9300915604109155040E94BF
:100CB800F4050F910E941B0600915604039500311C
:100CC80010F013950027123020F0002711270E94FA
:100CD800E20500935604109355041F910F9108954F
:100CE8000F930027009357040F9108950F931F93B4
:100CF80000915E04F89410915704011729F011230C
:100D080019F078940C947E060093570478941F91F8
:100D18000F9108951F932F93109156042091550415
:100D280020935504109356042F911F910895089508
:100D38004156522D4F5320302E37330001E00E9488
:100D480034050230D9F71330C9F702E00E946C0469
:100D58000E94E2040E946C0499278BE00E947500AF
:100D680002E011E023E00E9415050C94B4060E94ED
:100D7800E20411E0B7E0A1E30E94B501829AB99AB2
:100D8800C19A0E947A0601E00093560400E000939D
:100D9800550401E40E9454060F9302E40A950E9448
:100DA8006D050E944E050F9101E00093560400E086
:100DB8000093550400E20E945406C1980F9302E480
:100DC8000A950E946D050E944E050F910E947406B7
:100DD8000C94C4060E94F40608950E940A07089518
:100DE800959A93980E94FD069598939A0E94FD06FD
:100DF8000895969A0E94970596980E94AE05949A2F
:100E08000E94970594980E94970508959598939A3B
:100E18000E941307959A93980E9413070895949A2D
:100E28000E94970594980E94AE05969A0E9497058D
:100E380096980E94970508958E9A8D9A8C9A8B9A07
:100E4800969895989498939808950E9420070E94E0
:100E5800F1060C942B070C942F0708958091090034
:100E680099270E947500EE23F03021F40E94E204D5
:100E78000E946C04F89400914E0410914D04209146
:100E88004C04789430913A00219331931193319323
:100E9800019333273193E6500E947A0603E00093CA
:100EA800560401E0009355040E9446060E94740609
:040EB8000C943E0751
:00000001FF
