:020000020000FC
:0C0000000C9427000C94A1000C94B90093
:10004C00EFC004E00EBF0FE50DBF00270093620068
:10005C00009361000E940503F894AF93BF93CF9374
:10006C00DF93B3E0A3EBD0E0CBE00E94DC01DF91A7
:10007C00CF91BF91AF917894F894AF93BF93CF93F6
:10008C00DF93B3E0ABECD0E0CDE40E94DC01DF9178
:10009C00CF91BF91AF917894F894AF93BF93CF93D6
:1000AC00DF93B3E0A9EED0E0C9E00E94DC01DF9160
:1000BC00CF91BF91AF917894F894AF93BF93CF93B6
:1000CC00DF93B3E0AEEED0E0CBE00E94DC01DF9139
:1000DC00CF91BF91AF917894F8940F9304E00E9464
:1000EC00FE010F917894F8940F931F93AF93BF93E5
:1000FC0001E010E4B3E0ACEF0E940801BF91AF91B6
:10010C001F910F917894F8940F931F93AF93BF9313
:10011C0003E010E4B3E0ACEF0E940801BF91AF9193
:10012C001F910F917894829A0F9300E000936300D3
:10013C000F910C945901F8940F931F93EF93FF9325
:10014C00E4E4F7E00CE410E00E94E102FF91EF918F
:10015C001F910F91829B0C94B0001F9310E40E948E
:10016C00D1001F911895F8940F931F93EF93FF9361
:10017C00EAE4F7E00CE410E00E94E102FF91EF9159
:10018C001F910F91829B0C94C8001F9310E80E9442
:10019C00D1001F9118950F93AF93BF93EF93FF93DB
:1001AC00009162000E94FB000123002309F00995D5
:1001BC00FF91EF91BF91AF910F9108950F931F9302
:1001CC00AF93BF93EF93FF930E94FB001127002383
:1001DC0021F006FD106407FD10681BBFFF91EF9125
:1001EC00BF91AF911F910F910895AF93BF930E9450
:1001FC0038023596DF0100000D91FD91ED91BF9114
:10020C00AF9108950F93EF93FF930E9438023596A8
:10021C0000001193B193A193FF91EF910F91089569
:10022C00F8940F93002703BF0F91009364000FB74E
:10023C0000936500009163000130A9F1EF93FF93E7
:10024C00009162000E944602019211922192319219
:10025C00419251926192719281929192A192B1923A
:10026C00C192D192E192F1920091640001931193A9
:10027C002193319341935193619371938193919312
:10028C00B193A193D193C193BF91B193AF91A1932A
:10029C00009162000E943802009165000193BF91A9
:1002AC00B193AF91A193209161002223E1F30091CE
:1002BC0062000395201710F00C94650101E0009387
:1002CC0062000F9308E10A950E9478020E946C026A
:1002DC000F910E941D0310E3100F0F931F93EF93C8
:1002EC00FF93E0E5F7E003E010E00E94E102FF91EC
:1002FC00EF911F910F910F931F93EF93FF93ECE5E9
:10030C00F7E001E410E00E94E102FF91EF911F91F0
:10031C000F910F931F93012F1AE40E94FD021F915E
:10032C000F910F9300E0009363000F910091620016
:10033C000E94E4000E94380201910FBFB191A1917B
:10034C00AF93BF93D191C191CCBF009162000E9439
:10035C004602019011902190319041905190619002
:10036C00719081909190A190B190C190D190E190B9
:10037C00F1900191119121913191419151916191A2
:10038C00719181919191B191A191D191C191B093C0
:10039C006500A0936400DF010000FD91ED91B09128
:1003AC006500A09164000E944A0218950F93EF9388
:1003BC00FF93009161000395009361000E94380245
:1003CC000FB70193B193A193D193C19300E0019323
:1003DC0001930193FF91EF910F910895F8940F936E
:1003EC00009162000E94FE010F9178940C94FC0124
:1003FC000F931F932F933F93CF93DF93EF93FF9321
:10040C0010916100112301F1011779F01017E0F040
:10041C000E943802EF0103950E94380229E23191C3
:10042C0039932A95E1F7011799F71A951093610002
:10043C0000916200002341F00A95101710F00C9403
:10044C0028020027009362000F9301E000936300E1
:10045C000F91FF91EF91DF91CF913F912F911F91D0
:10046C000F9108950F921F921F9319E2019F16E6A8
:10047C00010E1127111EF0011F911F900F9008956E
:10048C000E943802399608950F93002703BF02BFCC
:10049C0002E009BF02E003BF0F910895EF93FF93B1
:1004AC000F93002F0E9438020F9138961083FF9102
:1004BC00EF910895EF93FF930F93002F0E94380252
:1004CC000F9138960081FF91EF9108950F930A9543
:1004DC000E948C020E94A2020E94A2020A95D1F7ED
:1004EC000F91089500000E94A2020F9307EF025093
:1004FC000E94B302000000000F910F930AEF02500C
:10050C000E94B302000000000F910895000000004B
:10051C0000000E94A2020F9301EE02500E94B3024F
:10052C00000000000F910F930FEF02500E94B302D6
:10053C00000000000F9108950F9309EF02500E94E4
:10054C00B302000000000F910F9309EF02500E94BC
:10055C00B302000000000F9108950F9303500000A8
:10056C000A95E9F70F9108950E94DB020E94D102CF
:10057C0008950E94E0020E94D1020895000000003C
:10058C00000000000E94D10208950E94D10208953B
:10059C000E94D80208950E94E002000000000000B2
:1005AC00000008950E94E002089500000000000081
:1005BC000000089508950F931F932F93EF93FF93CB
:1005CC00212F102F222311F00C94EF0205910C9483
:1005DC00F0020191002329F00E94FD0213950C9466
:1005EC00E802FF91EF912F911F910F9108950F93B6
:1005FC00012F0E946E030F910E947A0308950F93AE
:10060C000FE70ABB0F9301E20A950E9478020E9441
:10061C006C020F910CE00E94610307E00E944703FB
:10062C000E941D0302E00E943A030F9108950F935C
:10063C001F93112701E00E948E030E94A2020E94C8
:10064C00A2020E94A2020E94A2021F910F91089581
:10065C000F931F932F93112727E202E00E9483032D
:10066C002F911F910F9108950F931F932F93112783
:10067C00046027E207700E9483032F911F910F9152
:10068C0008950F931F932F931127086027E20F7083
:10069C000E9483032F911F910F9108950F931F9325
:1006AC002F931127006127E20C710E9483032F9175
:1006BC001F910F9108950F931F932F931127006291
:1006CC0027E20C730E9483032F911F910F910895C1
:1006DC000F931F932F93112725E200680E94830329
:1006EC002F911F910F9108951F932F9310E42BE2DC
:1006FC000E9483032F911F9108950E948E030F93E4
:10070C00022F02500E94B302000000000F910895C6
:10071C0002950E94970302950E94970300270BBB3A
:10072C0008950F930F70012B0BBB0000DC9A000097
:10073C000000DC980F910895494E54300000494E4A
:10074C00543100004156522D4F5320302E350000AD
:10075C0052756E207461736B000000000F930BE0F8
:10076C0002500E94B302000000000F91F8940F9306
:10077C001F9302E01FE60E9454021F910F91789480
:10078C000000000000000C94B3030000F8940F93D9
:10079C0002E00E946002302E0F9178940000F894D1
:1007AC00AF93BF93CF93DF93B3E0AEEED0E0CCE248
:1007BC000E94DC01DF91CF91BF91AF917894000042
:1007CC0000000C94F4010000000000000C94E903FC
:1007DC0000000000F8940F9302E00E946002102EBB
:1007EC000F917894000000000C94EE0300000000C0
:0407FC00000008955C
:00000001FF
